:1000000063C07DC0AAC27BC07AC079C078C077C007
:1000100076C075C074C073C072C071C070C0050175
:100020000906A101050719E029E715002501750159
:1000300095088102950175088101950575010508EE
:10004000190129059102950175039101950675081D
:10005000150025650507190029658100C0090222E0
:1000600000010100803209040000010301010009C0
:100070002101010001223F000705810308000A1247
:1000800001100100000008C016DC27000101020079
:10009000011603440069006E006F0050006C00619F
:1000A000007900650072001C036400690067006944
:1000B000007300740075006D0070002E0063006F07
:1000C000006D00040309040011241FBECFE5D2E037
:1000D000DEBFCDBF10E0A0E6B0E0ECE3FAE002C086
:1000E00005900D92A236B107D9F720E0A2E6B0E064
:1000F00001C01D92AF3AB207E1F78DD39DC480CF06
:100100002091630030E0F901EE0FFF1FEC59FF4F23
:1001100091838083C901019665E070E066D4809385
:10012000630080916200853018F48F5F80936200D5
:100130000895CF93DF93EC01219718F4DF91CF91CD
:100140000895A895C4D08CE190E10197F1F700C023
:100150000000F2CFCF93DF93D62F10926F00109252
:1001600070008093710010927200109273001092D0
:10017000740010927500109276008091840084FFC4
:100180001CC068E08FE690E080D0C0E0A8959FD0CA
:100190008CE190E10197F1F700C00000CF5FDC1324
:1001A000F5CF109271008091840084FF09C068E04F
:1001B0008FE690E0DF91CF9168C0A89588D0DDCF21
:1001C000A89585D0F0CFFC018FE690E09093940045
:1001D0008093930080818076803291F48181813098
:1001E00089F0823041F48EE690E090939400809301
:1001F000930081E008958A3019F4838180936E0022
:1002000080E0089588E00895DF92EF92FF920F93C7
:100210001F93CF93DF9308E010E0C0E0D0E8DD2E1D
:10022000DC0ED1BE87D17C0184E3E81689E0F806B4
:100230000CF4CD2DD6950150110989F78FEF8C0F55
:1002400081BF0C2F10E00F5F1F4F81B78017110681
:1002500051F04CF0C1BFDF91CF911F910F91FF90F2
:10026000EF90DF90089566D18453994097FF03C0C3
:100270009195819591098E159F0514F4C1B77C0164
:1002800081B78F5F81BFE1CFBFCFCF93C62F2091C2
:10029000840024FF18C02091850038E8232720938C
:1002A00085002C2FFC01A6E8B0E081918D932150B0
:1002B0001216DCF36C2F86E890E038D1CC5FC09347
:1002C0008400CF9108952AE520938400EACFCF934C
:1002D000DF9380919500835087FD27C09091910016
:1002E0009D3209F58830F9F480919200CCE0D0E09D
:1002F000C81BD109C756DF4F83EC809379008AE58C
:1003000080936100109278008881807609F468C03B
:10031000CE0159DF9F81911104C09E81981708F486
:10032000892F80936000109295008091610084FF76
:100330003CC0809160008F3FC1F1C82F893008F028
:10034000C8E0982F9C1B909360009091790028E85A
:100350009227909379008823E1F040919300509187
:1003600094008091780086FFB8C0AAE7B0E0FA0157
:100370009C2F84918D9331969150D9F72FEF2C0FAC
:1003800030E02F5F3F4F240F351F309394002093B0
:1003900093006C2F8AE790E0C9D0CC5FCC3019F085
:1003A0008FEF80936000C093610084E196B39871F1
:1003B00031F48150D9F71092960010929000C1E06C
:1003C0008111C0E090917700C91739F0882319F0A6
:1003D000F8941ADF7894C0937700DF91CF91089555
:1003E0002A8110928200998191110AC01092830093
:1003F00022E830E082E030939400209393008ACF8B
:10040000953029F42093960022E830E0F4CF96301E
:1004100009F04CC09B81913059F48FE790E09093A4
:1004200094008093930082E190E49093780072CFDF
:10043000923041F48DE590E0909394008093930086
:1004400082E2F2CF9330F1F4211108C083EC90E006
:10045000909394008093930084E0E6CF213041F4A0
:1004600087EA90E090939400809393008CE1DCCF36
:100470002230D1F681E990E090939400809393002C
:1004800086E1D2CF913241F48FE690E090939400D0
:100490008093930089E0C8CF923231F68EE190E0EC
:1004A00090939400809393008FE3BECF983071F0C7
:1004B000993019F420939800A7CF9A3059F09B30C7
:1004C00009F0A2CF9BE4909385009ECF28E930E00D
:1004D00081E091CF22E830E0FBCFDA01EAE7F0E0FB
:1004E0009C2F8D9181939150E1F748CFAC9A8BB7B7
:1004F00080628BBFE4E8F0E08BE481838AE580834F
:100500000895A82FB92F80E090E041E050EA60956F
:1005100030E009C02D9182279795879510F08427A8
:100520009527305EC8F36F5FA8F30895EADF8D93D7
:100530009D930895A6E088279927AA9569F00197C9
:10054000E1F3B399FCCFB39BFECF81E09927A6B32B
:10055000019611F0A871D9F70895CF93CFB7CF9333
:10056000C395B39BE9F7B39B0BC0B39B09C0B39B87
:1005700007C0B39B05C0B39B03C0B39B01C0D5C0EC
:100580000F92DF93C0919200DD27C756DF4F012EF7
:10059000B39B03C0DF910F90E6CF2F930F931F9370
:1005A0004F932FEF4F6F06B303FB20F95F933F93F9
:1005B00050E03BE065C016B30126502953FDC895B5
:1005C00056B3012703FB25F92F7306B3B1F050276B
:1005D000102713FB26F906B22230F0F000C016B344
:1005E000012703FB27F90126502906B22430E8F53C
:1005F0004F77206816B30000F6CF50274F7D20625A
:1006000006B2102F000000C006B3002650291027A4
:1006100013FB26F906B2E2CF4F7B06B3206400C07D
:10062000DACF01265029187106B269F14E7F216098
:10063000012F16B328C0002650294D7F06B2226034
:10064000102F29C0012650294B7F06B22460012FAC
:100650002DC016B301265029477F2860000006B23E
:100660002EC04F7E06B3206130C0422706B34993A7
:1006700000265029102706B24FEF13FB20F9297FDF
:1006800016B379F2187159F10126502906B20127E3
:1006900003FB21F9237F06B371F200265029315064
:1006A000D0F006B2102713FB22F9277E16B351F2C1
:1006B00001265029012703FB06B223F92F7C49F2BA
:1006C000000006B3102713FB24F90026502906B2B8
:1006D0002F7939F270CF10E21ABF002719C03B50B2
:1006E0003195C31BD04010E21ABF0881033C09F1C9
:1006F0000B34F9F0209190001981110F1213EDCFF6
:100700004A81441F093651F10D3211F0013E29F79B
:10071000009397003F915F914F911F910F912F91FF
:10072000DF910F90CAB7C5FD1BCFCF91CFBFCF913F
:10073000189520919700222369F3109195001123B9
:1007400079F534307AF1309395002093910010912F
:1007500092003BE0311B3093920024C00091950041
:100760000130F4F40AE54F7049F43091610034FD32
:100770001AC000936100C9E7D0E019C0309184002D
:1007800034FD11C000938400C5E8D0E010C00527F7
:1007900010E000C021C0052710E0C89508BB14C0B8
:1007A0003AE501C032ED032EC0E0D0E032E017B3ED
:1007B0001861C39A08B317BB58E120E84FEF20FF38
:1007C000052708BB279517951C3F28F700004552C1
:1007D000B0F720FF0527279508BB17951C3FB8F6F3
:1007E00029913A9561F7077E10919600110F08BB89
:1007F000C250D04011F01093900010E21ABF086070
:1008000017B3177E402F477E54E05A95F1F708BB87
:1008100017BB48BB7FCF87B38A7F87BB88B38A7FEC
:1008200088BB64DEBB9A80E0815001F5BB9888E10B
:100830009FE00FB6F894A89581BD0FBE91BD789446
:1008400088E893E176DC60E58CE284DC84EF91E07B
:1008500070DC10E000E0F12CE12C712CD0E0C0E065
:10086000D12CC12C912CB12C812C95C0A895ECE1F8
:10087000F0E13197F1F700C00000D6CF912CB12CF8
:100880008AC0811188C0680177247394D0E0C0E0E9
:1008900082C086B356B2E52DE1704E2EF82FF4706B
:1008A0006F2EA52CA094A0FAAA24A0F882FD02C065
:1008B000AA24A3947720B9F06620F9F02196CF31CD
:1008C000D10528F0C8018C199D091ADC712CAA20C9
:1008D00009F484C0882069F1411001C0982C8B2C48
:1008E000B11059C02EC06110F2CFB299F0CFD0E054
:1008F000C0E0680177247394EACFD0E0C0E0E7CF8E
:10090000419151914817590708F4CA012F5F24C03B
:1009100082E390E02FC0B12C611039C00ADC60E5A1
:100920008CE218DC80E9E82EFF24F394BB24B39416
:100930002EC0952C9094892D8170982E411001C065
:100940009A2C30916200332319F3809164009091C6
:100950006500E6E6F0E021E03213D2CF0097C1F265
:100960008739910510F086E990E08A30910510F4FE
:100970008AE090E0992079F2662081F2DADB68EC77
:1009800081E5E8DBB92C90E9E92EFF24F394AA2055
:1009900009F468CF8A2CA8959ADC8CE190E1019744
:1009A000F1F700C000000F5F1F4FE114F10409F4DC
:1009B00070CF91E0E91AF10886B38470772009F4CA
:1009C00060CF882309F462CF2196CF31D10518F387
:1009D000C8018C199D0994DB712CDDCF882009F4A6
:1009E0004DCFBB2009F4ADCF3DCF97FB072E16F4BA
:1009F000009406D077FD08D00BD007FC05D03EF45C
:100A0000909581959F4F0895709561957F4F0895BA
:100A1000AA1BBB1B51E107C0AA1FBB1FA617B70724
:100A200010F0A61BB70B881F991F5A95A9F7809540
:0C0A30009095BC01CD010895F894FFCF13
:020A3C00FF5A5F
:00000001FF
